:100000000C943A010C9459010C9459010C94590127
:100010000C9459010C9459010C9459010C945901F8
:100020000C9459010C9459010C9459010C945901E8
:100030000C9459010C9459010C9459010C945901D8
:100040000C9459010C9459010C9459010C945901C8
:100050000C9459010C9459010C9459010C948B3453
:100060000C9459010C9459010C9459010C945901A8
:100070000C9459010C9459010C9459010C94590198
:100080000C9459010C9459010C9459010C94590188
:100090000C9459010C945901000000000000005F0D
:1000A00000000003000300143E143E14242A7F2A9B
:1000B000124333086661364955225000050300009B
:1000C000001C2241000041221C0014083E081408B4
:1000D000083E0808005030000008080808080060C2
:1000E00060000020100804023E5149453E00040211
:1000F0007F00426151494622414949361814127F16
:100100001027454545393E494949320101710907E2
:100110003649494936264949493E003636000000ED
:10012000563600000814224100141414141400411F
:1001300022140802015109063E4159555E7E090903
:10014000097E7F494949363E414141227F41414133
:100150003E7F494949417F090909013E4141493AE8
:100160007F0808087F00417F4100304040403F7FCA
:10017000081422417F404040407F020C027F7F02F2
:1001800004087F3E4141413E7F090909061E2121A5
:10019000215E7F09090976264949493201017F011B
:1001A000013F4040403F1F2040201F7F2010207F04
:1001B00041221C224107087008076151494543004C
:1001C0007F41000002040810200000417F0004026B
:1001D0000102044040404040000102040020545409
:1001E00054787F4444443838444444443844444474
:1001F0007F385454541804047E0505085454543C64
:100200007F0804047800447D40002040443D007F86
:100210001028440000417F40007C047804787C086A
:1002200004047838444444387C1414140808141422
:10023000147C007C080404485454542004043F44B3
:10024000443C4040207C1C2040201C3C4030403C32
:1002500044281028440C5050503C4464544C4400F2
:100260000836414100007F0000414136080002018C
:100270000204020011241FBECFEFD0E2DEBFCDBFCB
:1002800012E0A0E0B1E0EAE9F3E700E00BBF02C052
:1002900007900D92A43CB107D9F715E0A4ECB2E0A9
:1002A00001C01D92AC3DB107E1F70E949F350C944F
:1002B000CB390C94000023B123B123B123B10197B2
:1002C0000097C9F70895680F791FFC012191CF01AC
:1002D00027FF02C02A9A01C02A98299A299826FF46
:1002E00002C02A9A01C02A98299A299825FF02C09B
:1002F0002A9A01C02A98299A299824FF02C02A9A8A
:1003000001C02A98299A299823FF02C02A9A01C07D
:100310002A98299A299822FF02C02A9A01C02A986D
:10032000299A299821FF02C02A9A01C02A98299A5D
:10033000299820FF02C02A9A01C02A98299A299850
:100340008617970711F608952A9A680F791F23B127
:10035000299A299823FB222720F9220F1B992F5F26
:10036000299A2998220F1B992F5F299A2998220FE1
:100370001B992F5F299A2998220F1B992F5F299A81
:100380002998220F1B992F5F299A2998220F1B99D0
:100390002F5F299A2998220F1B992F5F299A299854
:1003A000FC012193CF01E617F70789F608950F9313
:1003B0001F93CF93DF931F92CDB7DEB708E813E109
:1003C00061E070E0CE0101960E94A40189818F3F17
:1003D00049F084E690E00E945B010150110901158B
:1003E000110571F781E090E0012B11F480E090E0BD
:1003F0000F90DF91CF911F910F910895CF93DF93CD
:100400001F92CDB7DEB7289A61E070E0CE01019669
:100410000E94A4010F90DF91CF910895CF93DF93B5
:1004200000D01F92CDB7DEB7289861E070E0CE0112
:1004300001960E94A4010E94D701009739F48A8393
:100440009B830E94FE018A819B8102C081E090E033
:100450000F900F900F90DF91CF910895CF92DF9280
:10046000EF92FF920F931F93CF93DF9300D0CDB7FE
:10047000DEB77C016B0108EE13E061E070E0CE01B5
:1004800001960E94A40189818F3F81F089818E3F6E
:10049000B9F4B601C7010E94A40162E070E0CE0188
:1004A00001960E94A40181E090E00CC084E690E0F7
:1004B0000E945B010150110901151105F1F6E6CF0B
:1004C00080E090E00F900F90DF91CF911F910F91FE
:1004D000FF90EF90DF90CF900895DF92EF92FF9220
:1004E0000F931F93CF93DF93CDB7DEB727970FB648
:1004F000F894DEBF0FBECDBF182F042FF52EE62EC9
:10050000D72E87FF09C040E050E0BA0187E30E9480
:100510006D028230B8F51F771C3051F4812F806452
:100520008983DA82EB82FC820D83112369F008C093
:100530000E94FE010E940E02892B81F78FEF22C0DC
:10054000183021F081E003C085E901C087E88E837F
:1005500066E070E0CE0101960E9463011C3031F428
:1005600061E070E0CE0107960E94A4011AE061E00C
:1005700070E0CE0107960E94A4018F8187FF02C020
:100580001150A9F727960FB6F894DEBF0FBECDBF66
:10059000DF91CF911F910F91FF90EF90DF90089521
:1005A000FF920F931F93CF93DF9300D0CDB7DEB7A9
:1005B0008C01F62E0E94D701009739F1F98261E093
:1005C00070E0CE0101960E9463018DEFF816D9F01C
:1005D00060E072E0C8010E94630162E070E0CE0159
:1005E00001960E94A40161E070E0CE0101960E9494
:1005F000A40189818F7131E020E0853009F030E07D
:10060000832F922F02C081E090E00F900F90DF9136
:10061000CF911F910F91FF900895811103C0809198
:100620000001089581E00895EF92FF920F931F93C8
:10063000CF93DF9300D000D0CDB7DEB7811180C05B
:1006400080E197E20E945B01209A289A219A2998DA
:10065000229A1AE061E070E0CE0101960E94A401A6
:100660001150C1F740E050E0BA0180E00E946D02F5
:10067000813009F059C04AEA51E060E070E088E05A
:100680000E946D02813019F564E070E0CE010196A0
:100690000E94A4018B81813009F046C08C818A3A86
:1006A00009F042C008EE13E040E050E060E070E482
:1006B00089EA0E946D02882379F188EE93E00E9416
:1006C0005B01015011090115110571F72DC040E0C2
:1006D00050E0BA0189EA0E946D02823028F499EA5A
:1006E000E92E22E0F22E04C0EE24E394FF24F394DA
:1006F00008EE13E040E050E0BA018E2D0E946D023A
:10070000882379F188EE93E00E945B010150110982
:100710000115110579F708C040E050E0BA018AE3FD
:100720000E946D02882371F0F12CF092C40211E056
:10073000F11010E0109300010E94FE01812F1BC0F8
:1007400083E019C064E070E0CE0101960E94A4012C
:10075000898186FF03C03CE0F32EE7CF84E0F82ECA
:10076000E4CF40E052E060E070E080E10E946D0282
:100770008111DACFDACF0F900F900F900F90DF91A9
:10078000CF911F910F91FF90EF900895FF920F93DB
:100790001F93CF93DF93EB01BA01A901811103C02D
:1007A0008091000101C081E080FD36C08091C402CB
:1007B00083FD07C0A9E0440F551F661F771FAA9548
:1007C000D1F70230110518F0F2E1FF2E02C0E1E18D
:1007D000FE2E8F2D0E946D02811116C060E072E026
:1007E000CE010E942E02892B31F0DE5F01501109EB
:1007F0000115110599F782E1F81206C040E050E0BA
:10080000BA018CE00E946D020E94FE0181E090E03E
:10081000012B21F480E002C083E090E0DF91CF91D2
:100820001F910F91FF900895CF92DF92EF92FF9268
:100830000F931F93CF93DF93EB0169017A0181112D
:1008400003C08091000101C081E080FD4DC0809116
:10085000C40283FD07C0B9E0CC0CDD1CEE1CFF1CFC
:10086000BA95D1F70130110599F4B701A60188E1D5
:100870000E946D02811130C06EEFCE010E94D00245
:1008800031E020E0892B09F030E0032F122F24C043
:10089000867031F0A80160E070E087E90E946D0287
:1008A000B701A60189E10E946D02811115C06CEFAC
:1008B000CE010E94D002892B31F0DE5F0150110978
:1008C00001151105A1F76DEF80E090E00E94D002C4
:1008D000892B11F401E010E00E94FE0181E090E01C
:1008E000012B21F480E002C083E090E0DF91CF9102
:1008F0001F910F91FF90EF90DF90CF9008950F938D
:100900001F93CF93DF93CDB7DEB760970FB6F89400
:10091000DEBF0FBECDBF8A01811103C080910001EF
:1009200001C081E080FD81C0613091F040F0633012
:1009300009F075C080E890E0A0E0B0E069C00E94D6
:100940000E0201E010E0892B09F46BC000E069C0E1
:1009500040E050E0BA0189E00E946D02882311F066
:1009600001E05EC060E170E0CE0101960E942E02BF
:10097000892BB1F399819295969596959370888578
:1009800029855A859130D9F48F7390E0A0E0B0E0CA
:10099000DC01992788270196A11DB11D30E0322F77
:1009A0002227250F311D820F931FA11DB11DEAE0E3
:1009B000880F991FAA1FBB1FEA95D1F729C022955E
:1009C000269526952370F4E08F9FC0011124820F95
:1009D000911D01962F81237030E0322F2227330F93
:1009E000330F820F931FA0E0B0E02E812F704B8554
:1009F000441F4427441F240F352F3370330F230F18
:100A0000275004C0880F991FAA1FBB1F2A95D2F731
:100A1000F80180839183A283B38300E001C004E0E6
:100A200010E00E94FE01C80102C083E090E06096E1
:100A30000FB6F894DEBF0FBECDBFDF91CF911F91EF
:100A40000F910895CF93DF93DB01FC019A012230CF
:100A5000310538F0CD91DD91C193D1932250310908
:100A6000F6CFDA01AE7FFB01EA0FFB1FA80FB91F1B
:100A7000417055274E0F5F1FE417F50719F081915C
:100A80008D93FACFDF91CF910895CF93DF93EB0150
:100A9000FB013996DC011E964D915D916D917C9123
:100AA0005197452B462B472BA1F152962D913C9106
:100AB0005397D90180E090E05EE201964D9140327B
:100AC00051F0453009F445EE8930910511F4508319
:100AD0003196408331968B30910579F7D9011B9679
:100AE0008C911B9788875C964D915D916D917C915F
:100AF0005F97488359836A837B8358968D919C9135
:100B000059979D838C8356968D919C9157979F837F
:100B10008E831082DF91CF910895FC012081318175
:100B200021153105B1F0F901AF016191613270F029
:100B30006A33D1F7F90161914E175F0751F46033C1
:100B400041F42E5F3F4FFC013183208380E090E031
:100B500008958FEF9FEF08950097D1F0DC01ED919C
:100B6000FC9111973097A1F02081222389F02681F2
:100B7000378112968D919C9113972817390741F46C
:100B800081810E940D0380FF06C083E090E00895FC
:100B900089E090E0089580E090E008954F925F92A0
:100BA0006F927F92AF92BF92CF92DF92EF92FF92BD
:100BB0000F931F93CF93DF93EC018C81882309F46B
:100BC00046C04AA45BA46CA47DA46E018EE2C80E4C
:100BD000D11C01E010E0A3019201B60189810E94BD
:100BE0001404892B89F51C828E8D9F8DA8A1B9A133
:100BF000B301A201481B590B6A0B7B0B8E899F899D
:100C0000A88DB98D481759076A077B0700F5AB8097
:100C1000B12CE12CF12CC5018E199F090297B8F077
:100C20008E899F89A88DB98D480E591E6A1E7B1E1C
:100C300001E010E0A3019201B60189810E94140431
:100C40008FEFE81AF80AE7CF81E090E002C080E079
:100C500090E0DF91CF911F910F91FF90EF90DF9087
:100C6000CF90BF90AF907F906F905F904F9008951E
:100C70000F931F93CF93DF93EC010E94CE05009753
:100C800009F063C08881833009F052C08D818130C2
:100C900009F04EC0CE018E96FC019E01225D3D4FB3
:100CA000E217F30711F01192FBCF25E53AEAFE01B6
:100CB000E45DFD4F3183208342E552E561E671E456
:100CC0004EA75FA768AB79AB42E752E761E471E6F4
:100CD000FE01EE5EFD4F40835183628373834E8538
:100CE0005F8568897989FE01EA5EFD4F4083518303
:100CF000628373834A855B856C857D85FE01E65E34
:100D0000FD4F40835183628373832A8D3B8D4C8DCD
:100D10005D8D2F5F3F4F4F4F5F4F2AA73BA74CA7DB
:100D20005DA701E010E0BC0189810E9414041D82CE
:100D300040E050E060E089810E947F0431E020E0E3
:100D4000892B09F430E0832F922FDF91CF911F91EF
:100D50000F910895AF92BF92CF92DF92EF92FF92E0
:100D60000F931F93CF93DF93EC016A017B018AA558
:100D70009BA5ACA5BDA5481759076A077B07F1F0ED
:100D8000CE010E94CE055C010097D1F401E010E095
:100D9000A7019601BE01625D7F4F89810E94C60353
:100DA000892B39F0AA24A394B12CCC24CA94DC2C2E
:100DB0007601CAA6DBA6ECA6FDA602C0A12CB12C2A
:100DC000C501DF91CF911F910F91FF90EF90DF90C0
:100DD000CF90BF90AF9008950F931F93CF93DF9361
:100DE000EC011C820FEF1FEF98010AA71BA72CA78D
:100DF0003DA70E94AA06892B19F5FE01E45DFD4F6F
:100E00008081918185359A4AE9F4FE01EC59FF4FC2
:100E10004081518162817381772746345144644512
:100E2000710591F0C058DF4F488159816A817B81FB
:100E3000772781E0463451446445710531F404C09C
:100E400083E003C082E001C080E0DF91CF911F9179
:100E50000F9108952F923F924F925F926F927F92DF
:100E60008F929F92AF92BF92CF92DF92EF92FF92BA
:100E70000F931F93CF93DF93CDB7DEB76D970FB668
:100E8000F894DEBF0FBECDBF6C01CB01B42ED601EE
:100E90001D921C920E948D057C0197FD2DC2FC01C4
:100EA000EE0FFF1FE953FD4F008111810115110560
:100EB00009F425C2F60111830083D8018C9188239F
:100EC00061F011968C910E940D0380FD06C0BB203D
:100ED00009F418C282FD1CC215C2F8011082E18219
:100EE0008E2D0E94140380FD10C2BB2011F082FDE4
:100EF0000FC240E050E0BA01C8010E94EC06813008
:100F000009F042C0FE01319620E030E0C801820FB6
:100F1000931FDC01A051BE4F4C91442349F0DC01EA
:100F2000AC50BE4F8D919D910D90BC91A02D03C0F2
:100F300080E090E0DC0181939193A193B193205FD5
:100F40003F4F2034310511F76E01F1E1CF0ED11C76
:100F50009E012F5F3F4F7901D7014D905D906D90BD
:100F60007D907D01411451046104710441F0B3018D
:100F7000A201C8010E94EC06811102C010C082E0EB
:100F8000EC14FD0449F703C0412C512C320183308D
:100F900009F4C1C1882319F08DE090E0BEC1F801C9
:100FA00081AD92AD81159240B9F7F801EC5BFF4F2E
:100FB000C080D180E12CF12CC114D104E104F104F2
:100FC00039F4F801EE5AFF4FC080D180E280F380FF
:100FD000D8015696CD92DD92ED92FC925997DE960D
:100FE0004C91DE9713964C9313978FEF840F8230BA
:100FF00098F6DB96EC91DB97E98B1296EC931297BF
:10100000EE2351F22E2F30E0C90101978223932362
:10101000892B11F6F801FF962080318019963C92B9
:101020002E921897C1018F709927892B09F0B4CFA0
:10103000F801EF5BFF4F80809180A12CB12C8114CF
:101040009104A104B10439F4F801E25BFF4F808000
:101050009180A280B380D801DC96ED91FC91DD9760
:10106000309709F499CFA42FB0E0A70196010E9410
:10107000C3356E8B7F8B888F998F9F0140E050E046
:101080002A8F3B8F4C8F5D8FC10164E096958795C9
:101090006A95E1F7280F391F411D511D8E899F89DF
:1010A000A88DB98D280F391F4A1F5B1F2A8B3B8BD8
:1010B0004C8B5D8B82169306A406B50608F46CCFA4
:1010C000C501B401621B730B840B950BE9892E2FAC
:1010D00030E040E050E00E94063621153105410520
:1010E000510509F459CF263FFFE03F07410551055F
:1010F00048F0263F8FEF38074105510530F492E064
:10110000998B05C0A1E0A98B02C0B3E0B98B49015E
:101110005A01E2E08E0E911CA11CB11CD80152961E
:101120008D929D92AD92BC925597F801428E538E4E
:10113000648E758E8A8D9B8DAC8DBD8D840D951DB5
:10114000A61DB71D868F978FA0A3B1A34A895B897F
:101150006C897D89440D551D661D771D46A357A3D7
:1011600060A771A7F989F330C9F4232809F014CFD7
:10117000F801E65AFF4F80819181A281B381F80185
:1011800082A393A3A4A3B5A3C501B40152E0660F43
:10119000771F881F991F5A95D1F72DC0232809F46E
:1011A000FBCE2E893F89488D598D820F931FA41F36
:1011B000B51FF80182A393A3A4A3B5A3F989F230C4
:1011C00039F4C501B401660F771F881F991F13C03A
:1011D000A3E0B0E0A50194010E94C33596958795E0
:1011E0007795679521E082229924AA24BB24680D73
:1011F000791D8A1D9B1DDC01CB0181509E4FAF4F95
:10120000BF4F29E0B695A795979587952A95D1F771
:10121000C816D906EA06FB0608F4BECE8FEF9FEF8C
:10122000DC01F80186879787A08BB18B8287938733
:10123000A487B58780E88583F989F33009F04BC02E
:10124000F801E25AFF4F80819181019709F043C074
:10125000B301A2014F5F5F4F6F4F7F4FC8010E94E4
:10126000AA06892BC1F5D80115961C92F801E45DF8
:10127000FD4F8081918185359A4A69F5F80186A5EF
:1012800097A5A0A9B1A982359245A146B14419F507
:10129000F801EE5EFD4F80819181A281B38182379A
:1012A0009247A144B146B9F4F801EA5EFD4F80814E
:1012B0009181A281B381F80186879787A08BB18B3A
:1012C000E65EFD4F80819181A281B381F801828722
:1012D0009387A487B587E989D801EC938091C502EB
:1012E0009091C60201969093C6028093C50217960C
:1012F0009C938E93169706C08BE090E00EC08CE016
:1013000090E00BC080E090E008C083E090E005C072
:101310008AE090E002C081E090E06D960FB6F8940C
:10132000DEBF0FBECDBFDF91CF911F910F91FF9018
:10133000EF90DF90CF90BF90AF909F908F907F9075
:101340006F905F904F903F902F9008950F931F9351
:10135000FC014250510961097109028913892489EC
:1013600035890250110921093109401751076207D7
:10137000730778F4A281B0E09A01AB010E94C335F3
:1013800006A117A120A531A5600F711F821F931F11
:1013900003C060E070E0CB011F910F910895AF9200
:1013A000BF92CF92DF92EF92FF920F931F93CF9352
:1013B000DF93EC016A017B01423051056105710543
:1013C00008F4A8C08A899B89AC89BD894817590748
:1013D0006A077B0708F09EC08881823009F44BC001
:1013E000833009F46CC0813009F094C05A01B6947E
:1013F000A794A40EB51EC501892F992786954E8DF9
:101400005F8D68A179A1480F591F611D711DCE0123
:101410000E94AA06892B21F06FEF7FEFCB017EC0DF
:1014200085010F5F1F4FF501F170EC0FFD1FB6A492
:10143000C801892F992786954E8D5F8D68A179A166
:10144000480F591F611D711DCE010E94AA06892BEC
:1014500019F7F801F170EC0FFD1F86A56B2D70E0F8
:10146000782BC0FE06C0C4E076956795CA95E1F773
:1014700023C07F7021C0452F562F672F77278E8D71
:101480009F8DA8A1B9A1480F591F6A1F7B1FCE01CC
:101490000E94AA06892B09F0BFCFCC0CDD1CEE1CE4
:1014A000FF1CE894C0F881E0D822EE24FF24FE015E
:1014B000EC0DFD1D66A577A580E090E02FC0F7E05C
:1014C0007695679557954795FA95D1F78E8D9F8DAF
:1014D000A8A1B9A1480F591F6A1F7B1FCE010E9406
:1014E000AA06892B09F098CFE2E0CC0CDD1CEE1C9B
:1014F000FF1CEA95D1F78CEFC82281E0D822EE24B8
:10150000FF24FE01EC0DFD1D66A577A580A991A91C
:101510009F7004C061E070E080E090E0DF91CF91C7
:101520001F910F91FF90EF90DF90CF90BF90AF9001
:101530000895AF92BF92CF92DF92EF92FF920F93F6
:101540001F93CF93DF93EC018B017D836C83CE805F
:10155000DF80E884F98481E0C816D104E104F10455
:1015600019F482E090E084C0E881F981828993894E
:10157000A489B589C816D906EA06FB0690F7C114F6
:10158000D104E104F104B9F48081833041F482A1F3
:1015900093A1A4A1B5A10097A105B10551F480853F
:1015A000918508171907E8F662A173A184A195A196
:1015B00031C06C017D01A28080E1A89E5001112400
:1015C00088819981B701A6010A151B0508F10E94BF
:1015D000CF096B017C018FEFC816D806E806F80624
:1015E00009F444C082E0C816D104E104F10408F40F
:1015F000B8CFE881F98182899389A489B589C81611
:10160000D906EA06FB0608F0ACCF0A191B09D8CFA9
:101610000E94A609CA86DB86EC86FD8661157105E7
:101620008105910509F49DCF980154E036952795E1
:101630005A95E1F7DC01CB01820F931FA11DB11D6B
:101640008E879F87A88BB98B0F70112765E0000FDD
:10165000111F6A95E1F7025D1F4F88819981800F04
:10166000911F9B8B8A8B80E090E002C081E090E02C
:10167000DF91CF911F910F91FF90EF90DF90CF906E
:10168000BF90AF900895CF93DF93EC016C817D8183
:101690000E94990A0097E1F44E855F8568897989EF
:1016A000888199810E94AA06009791F4EA89FB89B2
:1016B0009F01205E3F4FE217F30711F01192FBCF1D
:1016C000EA89FB8925EE2083E881F98121E02483E2
:1016D000DF91CF9108954F925F926F927F928F9298
:1016E0009F92AF92BF92CF92DF92EF92FF920F93B1
:1016F0001F93CF93DF93EC016A017B01280139012D
:10170000423051056105710508F4CCC08A899B8976
:10171000AC89BD89481759076A077B0708F0C2C022
:101720008881823009F463C0833009F483C081303A
:1017300009F0B8C05A01B694A794A40EB51EC5010D
:10174000892F992786954E8D5F8D68A179A1480FC5
:10175000591F611D711DCE010E94AA06009709F054
:10176000A3C085010F5F1F4FF501F170EC0FFD1F46
:101770004601570131E083229924AA24BB24C0FEEC
:1017800008C026A52F7030E1439EC0011124282BEC
:1017900001C0242D26A781E08C834E8D5F8D68A12A
:1017A00079A1C801892F99278695480F591F611D76
:1017B000711DCE010E94AA06009709F075C0F801BC
:1017C000F170EC0FFD1F89288A288B2849F0B4E0BE
:1017D0007694679457944794BA95D1F7242D05C011
:1017E00026A5207F352D3F70232B26A758C0452FD7
:1017F000562F672F77278E8D9F8DA8A1B9A1480FEF
:10180000591F6A1F7B1FCE010E94AA06009709F08C
:101810004BC0CC0CDD1CEE1CFF1CE894C0F821E092
:10182000D222EE24FF24F601BE96EC0FFD1F51825A
:10183000408235C0E7E07695679557954795EA95DC
:10184000D1F78E8D9F8DA8A1B9A1480F591F6A1F8E
:101850007B1FCE010E94AA06009731F572E0CC0CE6
:10186000DD1CEE1CFF1C7A95D1F73CEFC32231E062
:10187000D322EE24FF24F601BE96EC0FFD1F40811B
:10188000518162817381442755276627707F4429DF
:10189000552966297729408351836283738321E028
:1018A0002C8302C082E090E0DF91CF911F910F91D5
:1018B000FF90EF90DF90CF90BF90AF909F908F9070
:1018C0007F906F905F904F9008954F925F926F92CC
:1018D0007F928F929F92AF92BF92CF92DF92EF92C0
:1018E000FF920F931F93CF93DF93EC012A013B01EB
:1018F000411551056105710599F48A849B84AC8476
:10190000BD8481149104A104B10451F14A895B8919
:101910006C897D8984169506A606B70608F524C04D
:101920000E94CF09623071058105910508F495C0C8
:101930006F3F2FEF72078207920729F44FEF3FEFB7
:101940002FEF9FEF8FC0CA88DB88EC88FD886C156D
:101950007D058E059F0508F482C05301420104C035
:10196000812C912C54018394750164018FEFC81A66
:10197000D80AE80AF80A4A895B896C897D89C41605
:10198000D506E606F70680F022E082169104A1044F
:10199000B10428F440E030E020E090E063C052E081
:1019A000C52ED12CE12CF12CB701A601CE010E944D
:1019B000CF09611571058105910599F06F3F2FEFF2
:1019C00072078207920709F4B9CF6130710581056A
:1019D000910509F442C0C814D904EA04FB0431F6A5
:1019E000D9CF0FEF1FEF2FEF3FE0B701A601CE01D8
:1019F0000E946B0B009771F541145104610471044E
:101A0000D1F4CA86DB86EC86FD864E855F856889C3
:101A100079894F3F8FEF580768077807B1F0415039
:101A20005109610971094E875F87688B798B8D81B8
:101A300081608D830AC097018601B301A201CE01A6
:101A40000E946B0B0097E9F205C04C2D3D2D2E2D09
:101A50009F2D08C0019709F471CF41E09CCF462F1C
:101A6000372F282F642F732F822FDF91CF911F9153
:101A70000F91FF90EF90DF90CF90BF90AF909F902D
:101A80008F907F906F905F904F9008957F928F928C
:101A90009F92AF92BF92CF92DF92EF92FF920F93FD
:101AA0001F93CF93DF93EC016B010C811D810F5FBE
:101AB0001F4F0115110519F484E090E0E6C08E85F2
:101AC0009F85A889B9890097A105B105A9F3780177
:101AD0002FE0E222FF24E114F10409F0C1C00196D5
:101AE000A11DB11D8E879F87A88BB98B4A855B8509
:101AF0006C857D8588819981FC01411551056105C1
:101B0000710531F48085918508171907A8F6A8C0DA
:101B1000228130E021503109F801A4E0F695E795E3
:101B2000AA95E1F72E233F23232B09F099C00E94A9
:101B3000CF094B015C01623071058105910518F4F4
:101B400082E090E0A2C06F3F2FEF720782079207FA
:101B500019F481E090E099C088819981FC01428963
:101B600053896489758984169506A606B70608F414
:101B700069C0CD2809F4A0CF4A855B856C857D8539
:101B80000E94650C4B015C01611571058105910591
:101B900009F479C0613071058105910589F26F3FC3
:101BA0002FEF720782079207A1F2888199810E9424
:101BB000CE05892B71F688819981FC01BE96825DE4
:101BC0009D4FE817F90711F01192FBCFC880D9801B
:101BD000B501A401C6010E94A609F60162A773A778
:101BE00084A795A7C12CD12C77247394E881F9811F
:101BF000828190E0C816D906C8F4748288819981E0
:101C00000E94CE05892B09F0A4CFE881F98182A535
:101C100093A5A4A5B5A50196A11DB11D82A793A763
:101C2000A4A7B5A7FFEFCF1ADF0AE0CF82A593A53F
:101C3000A4A5B5A58C199D09A109B10982A793A7EF
:101C4000A4A7B5A78A869B86AC86BD86B501A401EC
:101C5000888199810E94A6096E877F87888B998BDE
:101C60001D830C8375E0EE0CFF1C7A95E1F72EE2E4
:101C7000E20EF11C888199818E0D9F1D9B8B8A8BB2
:101C800080E090E002C087E090E0DF91CF911F916B
:101C90000F91FF90EF90DF90CF90BF90AF909F900B
:101CA0008F907F9008958F929F92AF92BF92CF9224
:101CB000DF92EF92FF920F931F93CF93DF93EC018C
:101CC0008B01DB018C918F3211F08C3511F40F5F99
:101CD0001F4F1E821F8218861986F801808180326C
:101CE00040F460E070E0CE010E94990A1B8A1A8AD3
:101CF00023C130E2F32E45E0E42E4801D8018C9157
:101D00000F5F1F4F8F32C9F38C35B9F3EC89FD8912
:101D1000CF019F01255F3F4F8217930721F0DC0120
:101D2000FD92CD01F9CF80E090E060E070E028E026
:101D300030E0A12C8B010F5F1F4FA401460F571FEE
:101D4000DA01BC90B0E2BB1508F054C04FE2B41603
:101D500009F450C0ACE5BA1609F44CC0BEE2BB169B
:101D600009F4E0C08217930708F0C1C0B7FE03C0B2
:101D70004A2D4360A42E4FE74B0D4F3120F040E237
:101D80004B0D4D3130F56E5F7F4F080D191DD80199
:101D9000DC9040EC4D0D4F3328F040E84D0D4D37B1
:101DA00008F0A5C0A901415051098417950708F012
:101DB0009EC0AC014F5F5F4F8F01080F191FD80104
:101DC000BC9202964E0F5F1FDA01DC928B01B801C4
:101DD000B1CF6B2D70E04EE452E0DA01CD90AD0151
:101DE000CC2009F487C0DD24C7FCD094C616D706E2
:101DF000A1F77DC0080D191DB0E2BB1510F044E03D
:101E000001C040E0892B09F472C08081853E09F44D
:101E1000E0822830310511F4AA0CAA0C8A2D8370B7
:101E2000813009F440618A2D8C70843009F4486057
:101E3000438760E070E0CE010E94990A009741F567
:101E40004E855F8568897989888199810E94AA0673
:101E50000097F1F4EA89FB8980818823A1F08385CA
:101E600083FD0BC0AC89BD89CF010B96E817F9073C
:101E700069F031912D913217C9F360E070E0CE0125
:101E80000E94460DDBCF84E090E002C080E090E04D
:101E9000EC89FD892385009739F08430910509F09C
:101EA0004BC022FF21C048C022FD46C0EA89FB8901
:101EB000838584FF19C0428D538D60E070E0A88156
:101EC000B9818C91833059F484899589A0E0B0E080
:101ED000DC0199278827482B592B6A2B7B2B4E83B3
:101EE0005F836887798709CF85E090E025C086E029
:101EF00090E022C04FEB4B0D4A3120F4BA2DB26076
:101F0000AB2E09C04FE94B0D4A3128F44A2D4160F0
:101F1000A42EA0EEBA0EAF01480F591FDA01BC92F1
:101F2000019655CF2830310511F7AA0CAA0C88E08C
:101F300090E02BE030E04BCFDF91CF911F910F91DC
:101F4000FF90EF90DF90CF90BF90AF909F908F90D9
:101F50000895CF93DF93EC0124E030E04E855F8558
:101F600068897989411551056105710509F18881F3
:101F700099810E94AA06009739F5EA89FB89208198
:101F8000222301F13385253E49F02E3239F0232FEB
:101F90002F732F3019F02F712830C1F460E070E0FA
:101FA000CE010E94460D009779F420E030E0D6CFB4
:101FB000C9012115310551F01E861F86188A198A1C
:101FC000C90104C084E090E09C01F6CFDF91CF917D
:101FD00008950F931F93CF93DF93EC0160E070E0BF
:101FE0000E94990A8C010097C1F44E855F8568892B
:101FF0007989888199810E94AA068C01009769F4E9
:10200000EA89FB898081853E71F0882361F061E077
:1020100070E0CE010E94460DE5CF0430110519F5A0
:1020200007E010E020C04E855F8568897989888146
:1020300099810E94AA068C010097A9F4EA89FB897C
:10204000CF018096E817F90711F01192FBCF6C8948
:102050007D894BE050E08A899B890E942205E881B6
:10206000F98181E08483C801DF91CF911F910F91A5
:1020700008958F929F92AF92BF92CF92DF92EF928C
:10208000FF920F931F93CF93DF93EC016A017B01C3
:10209000423051056105710508F453C04A895B89D6
:1020A0006C897D89C416D506E606F70608F049C096
:1020B0004A895B896C897D89C416D506E606F706D0
:1020C00060F4B701A601CE010E94CF094B015C016B
:1020D000611571058105910519F480E090E033C028
:1020E00081E088169104A104B10459F18FEF88169C
:1020F0009806A806B80611F100E010E09801B701B3
:10210000A601CE010E946B0B0097E9F44E855F8516
:10211000688979894F3F8FEF58076807780759F02A
:102120004F5F5F4F6F4F7F4F4E875F87688B798B15
:102130008D8181608D8375016401BACF81E090E06B
:1021400002C082E090E0DF91CF911F910F91FF904C
:10215000EF90DF90CF90BF90AF909F908F900895B9
:10216000CF93DF93CDB7DEB727970FB6F894DEBFD6
:102170000FBECDBF9C838B837E836D837A836983FF
:10218000CE0101964F830E948D054F8197FD24C09B
:10219000880F991FFC01E953FD4F0190F081E02D5C
:1021A000309709F01082EB81FC81309709F01082A2
:1021B0002B813C81FC01E953FD4F31832083232B8C
:1021C00071F0413061F440E0BE016B5F7F4FCE01A2
:1021D00003960E942A0705C08BE090E002C080E0D1
:1021E00090E027960FB6F894DEBF0FBECDBFDF910B
:1021F000CF9108954F925F926F927F929F92AF928C
:10220000BF92CF92DF92EF92FF920F931F93CF93E3
:10221000DF93CDB7DEB7A4970FB6F894DEBF0FBE3D
:10222000CDBF5C017CA36BA3F42E009709F4F8C02A
:10223000DC011D921C924E71BE016D5D7F4FCE017F
:1022400001960E942A07009709F0F5C0CE01479633
:102250009E8B8D8B6BA17CA1CE0101960E94530EAB
:102260000B891C89009729F40115110511F486E0EA
:1022700090E0BF2DBF719B2E2F2D2C7109F471C0E2
:10228000009779F08430910521F4CE0101960E94E7
:10229000E90FE92DE8609E2E0B891C89009749F013
:1022A000CAC0D8011B968C91817109F0C2C0F2FCA2
:1022B000BAC093FE62C080E090E0A9E6B5E4F80100
:1022C00086879787A08BB18B1386D801148E158EC5
:1022D000168E178EE981FA815A96CD90DC905B9725
:1022E000E12CF12C8081833069F454964D915C91FE
:1022F000559760E070E0BA0155274427C42AD52AD3
:10230000E62AF72AD8015B961C921E925A97559698
:102310001C921E92549781E08483C114D104E1047D
:10232000F10459F142A453A464A475A4B701A60111
:10233000CF010E943910009709F07DC089819A81F0
:10234000B1E0CB1AD108E108F108FC01C286D386BE
:10235000E486F586B301A2010E94AA06009769F0FF
:102360006AC0009709F067C0D8011B968C9184FD64
:102370005DC0F1FE02C080FD5CC093FE03C0B92DBC
:10238000B0629B2EE980FA80F70142A553A564A5AF
:1023900075A5D5015A964D935D936D937C935D978A
:1023A0005F961C930E935E9714969C9214971596C5
:1023B0001C92F801828D938DA0E0B0E0F70120819E
:1023C000233061F4F8014489558960E070E0BA0176
:1023D00055274427842B952BA62BB72BF5018687F1
:1023E0009787A08BB18BF801848D958DA68DB78DC5
:1023F000F50182879387A487B58716821782108696
:102400001186168A178A108E118EF182E082D7010A
:1024100016968D919C9117979383828380E001C0DB
:1024200089E090E008C088E090E005C084E090E09A
:1024300002C087E090E0A4960FB6F894DEBF0FBE0E
:10244000CDBFDF91CF911F910F91FF90EF90DF9063
:10245000CF90BF90AF909F907F906F905F904F9084
:1024600008952F923F924F925F926F927F928F9238
:102470009F92AF92BF92CF92DF92EF92FF920F9313
:102480001F93CF93DF93EC015B017A011901F901EE
:10249000118210820E94AC05009709F010C18D8155
:1024A000882311F090E00BC18C8180FF06C18A85E2
:1024B0009B85AC85BD854E815F8168857985841B50
:1024C000950BA60BB70BA70160E070E0841795078A
:1024D000A607B70708F076C07C0174C04E815F8103
:1024E00068857985DB01CA019170AA27BB27892BF2
:1024F0008A2B8B2B09F0B2C088819981FC01128153
:1025000011502A013B0129E076946794579447942F
:102510002A95D1F7142109F45AC0888099804A89F4
:102520005B896C897D89C4010E94A60961157105CA
:102530008105910509F46BC02B013C01410E511C32
:10254000611C711C6701CD2CDD24C694C114D1041B
:1025500009F480C0F4018281212F30E0A601420FEE
:10256000531F90E08417950718F46C01C21AD30A20
:102570008601A3019201B501F40181810E94C60385
:10258000892B09F081C0E881F9818481811144C0DF
:10259000DC2CCC24DD0CAC0CBD1C8E819F81A8856D
:1025A000B9858C0D9D1DA11DB11D8E839F83A887AC
:1025B000B987F101808191818C0D9D1D918380836C
:1025C000EC18FD08E114F10409F088CF73C0452B25
:1025D000462B472B29F46E857F858889998906C00B
:1025E0004A895B896C897D890E94CF0962307105B7
:1025F0008105910560F06F3FFFEF7F078F079F0711
:1026000009F442C06A8B7B8B8C8B9D8B86CF82E0DA
:102610008D8382E090E053C082A593A5A4A5B5A5C3
:1026200084199509A609B709A60160E070E084172E
:102630009507A607B70708F0ABCFBF01625D7F4FD4
:10264000982F8827990F40E052E08A0D9B1D0E9429
:1026500022059ECF4E8A5F8A688E798E8E819F81F9
:10266000917020E032E0281B390B67012E153F05E1
:1026700008F469014E895F89688D798D8881998117
:102680000E94AA06892B29F081E08D8381E090E0E9
:1026900016C08E819F81A885B9859170AA27BB2716
:1026A0008E9668817981680F791FA601C5010E9405
:1026B000220571CF80E090E002C087E090E0DF91DA
:1026C000CF911F910F91FF90EF90DF90CF90BF902F
:1026D000AF909F908F907F906F905F904F903F90C2
:1026E0002F9008952F923F924F925F926F927F9218
:1026F0008F929F92AF92BF92CF92DF92EF92FF9212
:102700000F931F93CF93DF93EC015B017A011901C3
:10271000F901118210820E94AC05009709F06DC189
:102720008D81882311F090E068C18C8181FF63C1A5
:102730008E819F81A885B985AC01BD014E0D5F1DBD
:10274000611D711D481759076A077B0708F0A3C070
:10275000E12CF12CA0C04E815F8168857985DB0179
:10276000CA019170AA27BB27892B8A2B8B2B09F0D2
:102770000CC1E881F981128111502A013B01A9E0C5
:102780007694679457944794AA95D1F7142109F445
:1027900087C088819981FC0142A453A464A475A4D4
:1027A0004E895F89688D798D4416550666067706D1
:1027B00009F4C4C0888099804A895B896C897D89C5
:1027C000C4010E94A609611571058105910509F4EE
:1027D000BBC02B013C01410E511C611C711C6701E7
:1027E000CD2CDD24C694C114D10409F4B2C0F40187
:1027F0008281212F30E0A601420F531F90E0841701
:10280000950718F46C01C21AD30A8601A30192013C
:10281000B501F40181810E941404892B09F0CBC019
:1028200088819981FC0142A553A564A575A5441929
:102830005509660977092601612C712C4415550547
:102840006605770570F4BA01762F6627770F6A0D53
:102850007B1D40E052E08E960E942205E881F981BE
:102860001482DC2CCC24DD0CAC0CBD1C8E819F8131
:10287000A885B9858C0D9D1DA11DB11D8E839F83DB
:10288000A887B987F101808191818C0D9D1D91836D
:102890008083EC18FD08E114F10409F05CCF1DC041
:1028A000452B462B472B69F46E857F85888999894E
:1028B000611571058105910519F540E050E0BA01F7
:1028C00004C04A895B896C897D89CF010E94650CAF
:1028D000611571058105910599F48E819F81A88507
:1028E000B9854A855B856C857D85481759076A07D8
:1028F0007B0708F07AC08A879B87AC87BD8775C045
:102900006130710581059105F9F06F3FFFEF7F0799
:102910008F079F0709F44FC06A8B7B8B8C8B9D8B35
:102920004E845F846888798845284628472809F0BE
:1029300030CF6E877F87888B998B2BCF0E94CE05F7
:10294000892B09F437CF37C082E08D8382E090E095
:1029500054C04E815F81688579858A859B85AC8569
:10296000BD85481759076A077B0758F0C4010E94C4
:10297000CE05892B01F5E881F98142A653A664A60C
:1029800075A64E8A5F8A688E798E8E819F8191703E
:1029900020E032E0281B390B67012E153F0508F4B3
:1029A00069014E895F89688D798D888199810E943E
:1029B000AA06892B29F081E08D8381E090E01DC07B
:1029C0008E819F81A885B9859170AA27BB278E9695
:1029D00028813981A601B501820F931F0E9422052B
:1029E000E881F98131E034833FCF8C8180628C8330
:1029F00080E090E002C087E090E0DF91CF911F91EE
:102A00000F91FF90EF90DF90CF90BF90AF909F908D
:102A10008F907F906F905F904F903F902F90089590
:102A2000EF92FF920F931F93CF93DF9300D0CDB718
:102A3000DEB78C01FC018281938197FD2DC07C0162
:102A4000FFEFEF1AFF0AF801E80FF91F66832DE385
:102A5000E216F104CCF09E012F5F3F4FA701B801B1
:102A60006A5F7F4FF801808191810E94721381E03B
:102A700090E029813A812E153F0511F480E090E025
:102A8000EE24FF24E81AF90AF801F382E282848135
:102A900095810196958384830F900F90DF91CF915C
:102AA0001F910F91FF90EF900895CF93DF93EC016A
:102AB0000E94AC050097C9F52C8125FF36C04A8DD0
:102AC0005B8D6C8D7D8D888199810E94AA0600970F
:102AD00061F5EE8DFF8D8385806283874A855B85F6
:102AE0006C857D85448F558F668F778F4E855F858A
:102AF00068897989538F428F758B648B40E050E0F1
:102B000069E675E4468B578B608F718F138A128A42
:102B10008C818F7D8C83E881F98181E08483888139
:102B20009981DF91CF910C943806DF91CF91089570
:102B3000CF93DF93EC010E945515009739F4CE0135
:102B40000E94AC05009711F419821882DF91CF9191
:102B500008952F923F924F925F926F927F928F9241
:102B60009F92AF92BF92CF92DF92EF92FF920F931C
:102B70001F93CF93DF93CDB7DEB728970FB6F894A6
:102B8000DEBF0FBECDBF1C014D835E836F83788790
:102B90000E94AC054D815E816F817885009709F0B8
:102BA00066C1D10115968C91882311F090E05FC128
:102BB000F101C284D384E484F584C416D506E60604
:102BC000F70618F06A017B0103C0848181FDFACF0A
:102BD000F1014680578060847184168217821086C6
:102BE0001186C114D104E104F10421F4C12CD12CCB
:102BF00076010FC1F10100811181D80112968C90EC
:102C0000912CA12CB12C89E0880C991CAA1CBB1C0E
:102C10008A95D1F74114510461047104D9F1B1E0EE
:102C20004B1A510861087108C701B601615071095A
:102C300081099109A50194010E94063629833A83EE
:102C40004B835C83C301B201A50194010E94063647
:102C500089819A81AB81BC8182179307A407B5074C
:102C6000C8F088279927DC0188199909AA09BB09A6
:102C700084219521A621B721F10186839783A0871E
:102C8000B187C81AD90AEA0AFB0A428953896489BA
:102C900075892DC0D1011E964D915D916D917C91EC
:102CA00051974115510561057105D1F440E050E09F
:102CB000BA01C8010E94650CAB01BC01413051054D
:102CC0006105710509F468C04F3FFFEF5F076F07AB
:102CD0007F0709F45AC0F10146875787608B718BD3
:102CE000D10152964D935D936D937C935597411509
:102CF00051056105710509F479CF2CC042305105A9
:102D00006105710508F448C0D101ED91FC918289FB
:102D10009389A489B589481759076A077B07E0F5A5
:102D2000D10152964D935D936D937C935597169672
:102D30008D919D910D90BC91A02D880D991DAA1D7E
:102D4000BB1DF10186839783A087B187C818D90876
:102D5000EA08FB088C149D04AE04BF0440F5F101A1
:102D600024818081918121FF1BC00E94650CAB01F1
:102D7000BC014115510561057105B9F04F3FFFEFE9
:102D80005F076F077F0709F0B9CF81E0D101159682
:102D90008C9381E090E06BC082E0F10185832BC0D1
:102DA0000E94CF09AB01BC01E9CF75016401F101BB
:102DB00086819781A085B1858C0D9D1DAE1DBF1D9F
:102DC00086839783A087B187D701C6019170AA2710
:102DD000BB27892B8A2B8B2B09F408CF808191810B
:102DE0000E94A609611571058105910539F482E0FB
:102DF000D10115968C9382E090E039C0B9E0F69449
:102E0000E794D794C794BA95D1F7C60ED71EE81E9B
:102E1000F91EF10186819781A085B185AC01BD01C4
:102E2000517066277727452B462B472B69F046893B
:102E30005789608D718DC416D506E606F70621F018
:102E4000C68AD78AE08EF18EF1014285538564856A
:102E50007585481759076A077B0738F48287938777
:102E6000A487B58784818062848380E090E028967F
:102E70000FB6F894DEBF0FBECDBFDF91CF911F918B
:102E80000F91FF90EF90DF90CF90BF90AF909F9009
:102E90008F907F906F905F904F903F902F9008950C
:102EA000EF92FF920F931F93CF93DF93CDB7DEB7CF
:102EB00060970FB6F894DEBF0FBECDBF7C01788B54
:102EC0006F87009709F459C040E0BE01615F7F4FF2
:102ED000CE010D960E942A07009709F04AC08D8501
:102EE0009E85D70111969C938E93CE01019655969F
:102EF0009C938E9354976F857889C7010E94530ED7
:102F0000009779F5D7015296ED91FC915397309740
:102F1000E1F0838584FF2BC0428D538D60E070E02B
:102F2000AD85BE858C91833059F40489158920E0E4
:102F300030E0980111270027402B512B622B732B77
:102F4000F7014683578360877187ED85FE8586810B
:102F50009781F7019383828360E070E0C7010E944C
:102F6000990A8430910519F0009749F002C085E074
:102F700090E0D7011D921C9204C089E001C080E05E
:102F800090E060960FB6F894DEBF0FBECDBFDF9124
:102F9000CF911F910F91FF90EF900895CF93DF9302
:102FA000EC010E94AC05009711F419821882DF91A0
:102FB000CF910895CF92DF92EF92FF920F931F93DC
:102FC000CF93DF93CDB7DEB72C970FB6F894DEBF63
:102FD0000FBECDBF8C016B010E94AC057C01009738
:102FE00079F5C114D10431F460E070E0C8010E94A9
:102FF000990A25C0CE010196F801958B848BC801F2
:103000000E94A90F8430910531F4F80116861786C5
:10301000108A118A02C0009791F4B601C8010E947B
:10302000450560E070E0C8010E94460D84309105BE
:1030300031F4F80116861786108A118A01C07C01C6
:10304000C7012C960FB6F894DEBF0FBECDBFDF913F
:10305000CF911F910F91FF90EF90DF90CF90089547
:10306000EF92FF920F931F93CF93DF93CDB7DEB70D
:10307000A4970FB6F894DEBF0FBECDBF9CA38BA361
:103080007B0140E0BE016D5D7F4FCE0101960E9445
:103090002A078C010097E1F4CE0147969E8B8D8B19
:1030A0006BA17CA1CE0101960E94530E8C0100976A
:1030B00079F48B899C89892B49F0E114F10441F062
:1030C000B701CE0101960E94450502C006E010E05E
:1030D000C801A4960FB6F894DEBF0FBECDBFDF9136
:1030E000CF911F910F91FF90EF9008952F923F92F3
:1030F0004F925F926F927F928F929F92AF92BF9208
:10310000CF92DF92EF92FF920F931F93CF93DF93B3
:10311000CDB7DEB727970FB6F894DEBF0FBECDBF91
:103120009A8389834B018A0140E0BE016F5F7F4F24
:10313000C8010E942A075C01D8010D911C910097DB
:1031400009F0CAC0F80186859785A089B1894288AF
:10315000538864887588B301A201425051096109FE
:103160007109481759076A077B0730F0F40180831B
:103170009183A283B383B0C0B081BF83B13099F58E
:1031800042E0442E512C612C712CC12CD12C7601A3
:10319000B301A201C8010E94CF096F3FEFEF7E0784
:1031A0008E079E0709F47DC0613071058105910588
:1031B00009F47BC0672B682B692B29F4FFEFCF1A2A
:1031C000DF0AEF0AFF0A2FEF421A520A620A720A56
:1031D000F80182899389A489B589481659066A0637
:1031E0007B06B0F267C0468D578D60A171A1E0E00B
:1031F000F0E01C821B82C12CD12C76011801BEE2AA
:103200002B0E311C8B819C81892BC1F4DB01CA01FF
:103210000196A11DB11D8B839C83AD83BE83C80124
:103220000E94AA06009709F044C0F1014B815C811D
:103230006D817E81A0E0B2E0BC83AB832F81223020
:1032400081F420813181232B29F48FEFC81AD80A09
:10325000E80AF80A3296AB81BC811297BC83AB8333
:1032600014C080819181A281B381BF70892B8A2B88
:103270008B2B29F4BFEFCB1ADB0AEB0AFB0A34963F
:103280008B819C8104979C838B8391E0491A510820
:1032900061087108411451046104710409F0B2CF4E
:1032A00009C0AA24A394B12C05C022E0A22EB12CFF
:1032B00001C05C01D8011E96CD92DD92ED92FC9288
:1032C000519715968C911597816015968C93F40102
:1032D000C082D182E282F382C50127960FB6F894AC
:1032E000DEBF0FBECDBFDF91CF911F910F91FF9039
:1032F000EF90DF90CF90BF90AF909F908F907F9096
:103300006F905F904F903F902F900895CF92DF92F3
:10331000EF92FF920F931F93CF93DF93EC010E94E4
:10332000AC058C01009709F071C08D81882319F0DC
:10333000082F10E06BC02C8121FF62C04E815F819D
:10334000688579858A859B85AC85BD854817590731
:103350006A077B0708F05AC04A875B876C877D87BE
:1033600020622C8388819981452B462B472B61F461
:103370004E855F85688979890E9439108C011E8687
:103380001F86188A198A37C04A895B896C897D89AA
:103390000E94CF096B017C018FEFC816D806E806A2
:1033A000F80689F1E1E0CE16D104E104F10419F444
:1033B00002E010E023C088819981FC014289538991
:1033C00064897589C416D506E606F706F8F44A89B5
:1033D0005B896C897D890FEF1FEF2FEF3FE00E9423
:1033E0006B0B8C01009751F4B701A601888199817C
:1033F0000E9439108C010115110541F00D8306C0A2
:1034000007E010E003C001E010E0F8CFC801DF9151
:10341000CF911F910F91FF90EF90DF90CF90089583
:10342000CF92DF92EF92FF92CF93DF93CDB7DEB7CB
:10343000EA970FB6F894DEBF0FBECDBF9AAF89AF43
:1034400041E0BE01675C7F4FCE0147960E942A078C
:10345000009709F06FC0CE018D969CA78BA769AD30
:103460007AADCE0147960E94530E009709F062C0D4
:10347000E9A5FAA53097E9F1238520FD59C0C28C52
:10348000D38CE12CF12CAF89B88D8C91833059F419
:1034900084899589A0E0B0E0DC0199278827C82AB3
:1034A000D92AEA2AFB2A24FF27C0C114D104E10447
:1034B000F104D9F146E150E0BE01695E7F4FCE01D3
:1034C00001960E942205CF82D886E986FA8662E0BC
:1034D00070E0CE0101960E94990A009759F5CE013D
:1034E00001960E94A90F009719F18430910521F0EF
:1034F00021C086E090E01EC0CE0147960E94430B9B
:103500000097C1F4C114D104E104F10429F48F89B6
:10351000988D0E9438060EC0B701A6018F89988D3C
:103520000E943910009731F4F2CF82E090E002C09F
:1035300087E090E0EA960FB6F894DEBF0FBECDBFED
:10354000DF91CF91FF90EF90DF90CF9008952F9271
:103550003F924F925F926F927F928F929F92AF9223
:10356000BF92CF92DF92EF92FF920F931F93CF9370
:10357000DF93CDB7DEB7AC970FB6F894DEBF0FBEC2
:10358000CDBF9CA38BA341E0BE016D5D7F4FCE01FB
:1035900001960E942A078C01009709F002C1CE0112
:1035A00047969E8B8D8B6BA17CA1CE0101960E94CC
:1035B000530E8C01009739F18430910509F0F1C068
:1035C00040E050E0BA0189819A810E94650C6B014C
:1035D0007C016115710581059105C1F081E0C81676
:1035E000D104E104F104A9F09FEFC916D906E90658
:1035F000F90691F401E010E0B701A60189819A81F2
:103600000E943910CEC008E010E0CBC007E010E007
:10361000F3CF02E010E0F0CF89819A810E94CE05BD
:103620008C01009749F709811A81B701A601C801E9
:103630000E94A6092B013C015801AEE2AA0EB11C62
:103640004801B2ED8B1ABDEF9B0AF501E815F905AB
:1036500011F01192FBCFC5010B96F50120E2E8179E
:10366000F90711F02193FBCF6EE2362EF80136A652
:1036700080E181AF80E090E0A9E6B5E4EC5BFF4F2C
:1036800080839183A283B383F801E85BFF4FD182EB
:10369000C082C701AA27BB278DA39EA3AFA3B8A74B
:1036A000F801EE5BFF4F9183808340E250E0B5016B
:1036B000C801825B9F4F0E942205F801E15BFF4F2A
:1036C00030824F81588569857A85E981FA818081C8
:1036D000833061F482A193A1A4A1B5A14817590731
:1036E0006A077B0719F440E050E0BA01D801A859F5
:1036F000BF4F4D935C93D801AE59BF4F6D937C93F0
:10370000328022242394332049F189819A81B301A4
:10371000A2014F5F5F4F6F4F7F4FDC019A964D9232
:103720005D926D927C929D9714962C9249A75AA710
:103730006BA77CA70E94CE058C0149A55AA56BA555
:103740007CA5009709F058CFF501E815F90511F0AF
:103750001192FBCF3A942A013B01D5CFCE010196BD
:103760000E94E90F8C01009709F046CFEB89FC8994
:1037700080E1838780E090E0A9E6B5E4868B978BB3
:10378000A08FB18FD38EC28E8DA19EA1958B848B7D
:1037900089819A8121E0DC0114962C930E943806DD
:1037A0008C01C801AC960FB6F894DEBF0FBECDBF3A
:1037B000DF91CF911F910F91FF90EF90DF90CF900D
:1037C000BF90AF909F908F907F906F905F904F9041
:1037D0003F902F9008950F931F93CF93DF93CDB712
:1037E000DEB7A4970FB6F894DEBF0FBECDBF9CA383
:1037F0008BA3162F042F41E0BE016D5D7F4FCE01DC
:1038000001960E942A07009719F5CE0147969E8BD4
:103810008D8B6BA17CA1CE0101960E94530E009767
:10382000B9F4EB89FC89309789F0402F4772842FD7
:103830008095938589234123842B838789819A816D
:1038400021E0FC0124830E94380602C086E090E05B
:10385000A4960FB6F894DEBF0FBECDBFDF91CF9117
:103860001F910F910895EF92FF920F931F93CF93A3
:10387000DF93CDB7DEB7C155D1090FB6F894DEBFDF
:103880000FBECDBF60969FAF8EAF609762967FAF41
:103890006EAF629741E0BE01625B7F4FCE014796FB
:1038A0000E942A07009709F0C7C08F89988D9A83D4
:1038B0008983CE018E5B9F4F9CA78BA760966EADD0
:1038C0007FAD6097CE0147960E94530E009709F096
:1038D000B3C069A57AA56115710509F497C0655F44
:1038E0007F4F45E150E0CE018D960E94220546E1D2
:1038F00050E0BE01695E7F4FCE0101960E94220515
:10390000CE01805B9F4F0E948D0597FD82C062961D
:103910006EAD7FAD6297CE0101960E94530E009767
:1039200009F47AC08430910509F086C0CE01019671
:103930000E94E90F009709F07FC0EB88FC8843E103
:1039400050E0BE01615D7F4FC7010D960E942205C8
:103950008DA58062D7011B968C931B970F89188DBC
:1039600081E0F80184831B968C9184FF5BC04D8DB0
:103970005E8D6F8D78A18F819885A985BA8548174E
:1039800059076A077B0709F44DC0D7015A964D9134
:103990005C915B9760E070E08081833069F45496BD
:1039A0008D919C915597A0E0B0E0DC019927882784
:1039B000482B592B6A2B7B2BC8010E94A609AB010F
:1039C000BC01411551056105710549F1C8010E940D
:1039D000AA06EF89F88D009779F5DF01A15BBF4F4B
:1039E0008C918E32F9F44F81588569857A859F01D3
:1039F00028593F4FD9014D935C939F012E593F4F5A
:103A0000D9016D937C9381E084830CC084E090E0C5
:103A100013C08BE090E010C088E090E00DC082E021
:103A200090E00AC0CE0147960E94430B009721F414
:103A30008F89988D0E943806CF5ADF4F0FB6F894C1
:103A4000DEBF0FBECDBFDF91CF911F910F91FF90D1
:103A5000EF9008950F931F93CF93DF93CDB7DEB709
:103A6000A4970FB6F894DEBF0FBECDBF9CA38BA367
:103A70008B0141E0BE016D5D7F4FCE0101960E943A
:103A80002A07009739F5CE0147969E8B8D8B6BA147
:103A90007CA1CE0101960E94530E0097D9F4EB89C8
:103AA000FC893097A9F0D80116968D919C911797B3
:103AB000978B868B14968D919C911597918F808F03
:103AC00089819A8121E0FC0124830E94380602C08A
:103AD00086E090E0A4960FB6F894DEBF0FBECDBF8F
:103AE000DF91CF911F910F9108956F927F928F92E6
:103AF0009F92AF92BF92CF92DF92EF92FF920F937D
:103B00001F93CF93DF9300D000D0CDB7DEB73C0139
:103B10006B014A018C01E12CF12C81E0C81AD1081B
:103B20005801EC14FD04F4F49E012F5F3F4F41E077
:103B300050E0BE016D5F7F4FC4010E9431122981A8
:103B40003A812130310571F48B8158019FEFA91A18
:103B5000B90AF8018083FFEFEF1AFF0A8A3011F0EB
:103B60008501DECFF5011082EF2819F480E090E0A6
:103B700001C0C3010F900F900F900F90DF91CF9174
:103B80001F910F91FF90EF90DF90CF90BF90AF907B
:103B90009F908F907F906F900895CF93DF93CDB7D4
:103BA000DEB7C854D1090FB6F894DEBF0FBECDBF43
:103BB0007A8369831C821B821E821D82682FCE013C
:103BC00001960E9410154B815C8157FF03C08FEF57
:103BD0009FEF17C09E01295B3F4FBE01695F7F4F7A
:103BE00089819A810E947213892B89F72B813C81EC
:103BF00029968EAD9FAD29972817390741F78D81FA
:103C00009E81C85BDF4F0FB6F894DEBF0FBECDBFFD
:103C1000DF91CF9108950F931F93CF93DF93CDB78B
:103C2000DEB7C854D1090FB6F894DEBF0FBECDBFC2
:103C30007A8369831C821B821E821D828C01F8019B
:103C400061918F01662329F0CE0101960E94101523
:103C5000F6CF4B815C8157FF03C08FEF9FEF17C0FA
:103C60009E01295B3F4FBE01695F7F4F89819A8129
:103C70000E947213892B89F72B813C8129968EAD86
:103C80009FAD29972817390741F78D819E81C85B21
:103C9000DF4F0FB6F894DEBF0FBECDBFDF91CF91DF
:103CA0001F910F9108952F923F924F925F926F92C2
:103CB0007F928F929F92AF92BF92CF92DF92EF92BC
:103CC000FF920F931F93CF93DF93CDB7DEB7CA5503
:103CD000D1090FB6F894DEBF0FBECDBFE396EEACB0
:103CE000FFACE397E1968EAD9FADE1979A83898310
:103CF0001C821B821E821D828E010D581F4FD70110
:103D00006C91662309F468C1653221F0BFEFEB1AAC
:103D1000FB0AA0C0F7013180F0E33F1208C0F701B1
:103D20003396D70112963C90222423940DC0BDE215
:103D3000F7013B1619F03296212C06C03396D701B5
:103D400012963C9082E0282EC12CD12C7F0180ED70
:103D5000830D8A3080F48AE09601829F6001839F00
:103D6000D00C1124C30CD11C37FCDA9490E3C91A8F
:103D7000D1083190EBCF832D8F7D8C3439F4A22D77
:103D8000A4602A2EBFEFEB1AFB0A3080332009F41F
:103D900023C18FE9830D8A3118F420EE230D01C071
:103DA000232D2F3409F45DC04CF4233409F443C0AF
:103DB000243499F0223409F452C04BC0253569F0FF
:103DC000283509F444C0233509F043C0F801808048
:103DD00091800E5F1F4FF40102C04AE043C05F01B3
:103DE000A818B90881918111FACF21FC0DC0C50135
:103DF000EFEFAE1ABE0A8C159D0530F460E2CE01DD
:103E000001960E941015F3CFD4016D914D016623E8
:103E100029F0CE0101960E941015F6CFAC14BD0416
:103E200008F06DCF60E2CE0101960E941015BFEF41
:103E3000AB1ABB0AF3CF6801E2E0CE0ED11CD80169
:103E40006C91CE0101960E941015860158CF40E179
:103E500009C0632DCE0101960E94101550CF42E09B
:103E600001C048E0F80122FE09C0608171818281B1
:103E700093810C5F1F4F243409F514C03296D8018A
:103E8000243449F42D913C91B901882777FD809520
:103E9000982F8F0107C02D913C91B90180E090E0EF
:103EA0008F010CC097FF0AC0909580957095619521
:103EB0007F4F8F4F9F4FB22DB8602B2EFE01E95BD5
:103EC000FF4F4F01A12CB12C442E512C612C712C91
:103ED000A30192010E940636F62FE62FCA01B9010E
:103EE000FA303CF0A8E73A1202C0E7E201C0E7E08E
:103EF000EF0FD50111966B96BFAFAEAF6B97E05D3C
:103F0000D401ED934D01232B242B252B61F06B96CF
:103F10002EAD3FAD6B972031310511F05901D8CF4F
:103F2000BFE0AB2EB12C23FE13C0E7E4F0E0EC0FB2
:103F3000FD1F6B962EAD3FAD6B97E20FF31F3DE279
:103F4000308395012E5F3F4F6B963FAF2EAF6B973F
:103F500020FE03C0A0E37A2E02C0F0E27F2E6B9613
:103F6000AEACBFAC6B9721FC0FC045013FEF831A8D
:103F7000930AAC14BD0438F4672DCE0101960E945B
:103F800010155401F2CF54016B962EAD3FAD6B97D7
:103F9000215031096B963FAF2EAF6B97E7E4F0E00D
:103FA000EC0FFD1FE20FF31F6081CE0101960E940E
:103FB00010156B962EAD3FAD6B97232B29F7AC14E4
:103FC000BD0408F09CCE672DCE0101960E9410150D
:103FD0003FEFA31AB30AF3CF4B815C8157FF03C0B5
:103FE0008FEF9FEF17C09E01295A3F4FBE01695FB7
:103FF0007F4F89819A810E947213892B89F72B81C7
:104000003C8169968EAD9FAD69972817390741F7B6
:104010008D819E81C65ADF4F0FB6F894DEBF0FBE6A
:10402000CDBFDF91CF911F910F91FF90EF90DF9067
:10403000CF90BF90AF909F908F907F906F905F9048
:104040004F903F902F9008950F931F93CF93DF933E
:104050001F92CDB7DEB78C0169830E9421389C0185
:104060006981009729F0FC01C801820F931F07C0E6
:104070008DE592E00E94FD2580E090E006C0E81703
:10408000F90711F06193FBCFC9010F90DF91CF9138
:104090001F910F910895CF93DF93EC01EAE5F0E0D3
:1040A000BF010E94DE359C01CE0168E671E00E94EE
:1040B000DE35BF010E94DE35611102C0F90104C086
:1040C000613049F4E21BF30BEE0FFF1FEF5FFE4F71
:1040D000808191810FC0623011F4F90102C0E21BAE
:1040E000F30BEE0FFF1FEF5FFE4F808191819195E3
:1040F00081959109DF91CF910895865A9F4F0C9435
:104100004B20AC0120E030E44217530728F43695E9
:10411000279536952795F8CF80E090E02115310559
:1041200091F0B901680F791F4617570728F0461B11
:10413000570BCB01820F931F969587953695279540
:1041400036952795EBCF8417950708F401960895C7
:104150008617970708F4CB0108956817790708F4C4
:10416000CB010895481759072CF0CA016417750749
:104170000CF4CB010895CF93C82F8A3019F48DE049
:104180000E94BB208091C80085FFFCCFC093CE0069
:104190008C2F992787FD9095CF9108958091C80025
:1041A00087FFFCCF8091CE0090E008951092CD0063
:1041B00083E38093CC0088E18093C90086E08093FC
:1041C000CA0085EC91E09093D9058093D80590932F
:1041D000DB058093DA0587EB91E09093D705809318
:1041E000D6050895E1E6F0E080E880831082279A02
:1041F0000E94D6200E9482240E9447350C943734B6
:1042000093E89093B00091E09093B1008093B30055
:104210000895909305058093040526E330E02093EC
:104220000040009779F480EF90E09093010580932F
:10423000000580E491E0909303058093020588E4F3
:1042400090E034C08130910579F480E491E090935E
:1042500001058093000580EF90E090930305809323
:10426000020588EE90E022C08230910579F480EF5B
:1042700090E0909301058093000580E491E0909395
:1042800003058093020588E890E010C0039781F44D
:1042900080E491E0909301058093000580EF90E029
:1042A000909303058093020588E290E0809300419B
:1042B0008AE290E08093004080E090E0909300419B
:1042C00080930041809100059091010501979093A2
:1042D0000041809300418BE290E08093004080E0B9
:1042E00090E090930041809300418091020590916D
:1042F0000305019790930041809300410895CF9367
:10430000873750F4883050F08D3350F48F3150F4AB
:10431000803150F0C2E009C086E702C088E004C0E6
:10432000C0E003C0C1E001C0C3E021EB30E0209356
:104330000040C0930041682F70E080E090E00E9450
:1043400032379B01AC0160E070E080EF94E40E94A2
:104350009C360E94043770E002C075956795CA9537
:10436000E2F760930041CF9108950F931F93CF938D
:10437000DF93CDB7DEB728970FB6F894DEBF0FBE38
:10438000CDBF29833A834B835C836D837E838F8388
:10439000988769817A812B813C814D815E818F81F3
:1043A0009885EAE2F0E0E09300407093004160936A
:1043B00000413093004120930041EBE2F0E0E093B4
:1043C00000405093004140930041909300418093FE
:1043D0000041ECE2F0E0E09300402F5F3F4F261BEE
:1043E000370B0196841B950B2817390790F4682F1B
:1043F0006770629FA001639F500D112473E0969532
:1044000087957A95E1F7829FB001839F700D112403
:1044100011C0622F6770689FA001699F500D112421
:1044200063E0369527956A95E1F7289FB001299FAB
:10443000700D1124842F8770815028F01093004153
:1044400000930041F9CFCA0123E0969587952A95FC
:10445000E1F7860F971F019708F110930041009331
:1044600000411093004100930041109300410093DC
:1044700000411093004100930041109300410093CC
:1044800000411093004100930041109300410093BC
:1044900000411093004100930041DDCF28960FB6F4
:1044A000F894DEBF0FBECDBFDF91CF911F910F916A
:1044B0000895EF92FF920F931F93CF93DF93CDB7A1
:1044C000DEB728970FB6F894DEBF0FBECDBF2983A5
:1044D0003A834B835C836D837E838F839887898146
:1044E0009A81EB80FC806D817E81AF81B8852AE264
:1044F00030E0209300409093004180930041F0927F
:104500000041E09200412BE230E0209300407093A4
:10451000004160930041B0930041A09300412CE220
:1045200030E020930040E816F906A0F0A8019B01B6
:104530008A01A217B30760F04E5F5F4FF801008158
:10454000118110930041009300412F5F3F4FF0CF46
:104550000196E9CF28960FB6F894DEBF0FBECDBF07
:10456000DF91CF911F910F91FF90EF9008958034CC
:1045700021E0920718F5603F710500F52AE230E06E
:10458000209300409093004180930041909300411C
:10459000809300418BE290E0809300407093004153
:1045A0006093004170930041609300418CE290E081
:1045B00080930040509300414093004108958F92B2
:1045C0009F92AF92BF92CF92DF92EF92FF920F93A2
:1045D0001F93CF93DF93EC014B016A018C81869589
:1045E000881A91088D818695C81AD10800E010E0DC
:1045F0008D8190E00817190768F5E12CF12C58011E
:10460000AC0CBD1C2C8130E0E216F30600F5029FD5
:10461000C001039F900D129F900D11248E0D9F1DC0
:10462000880F991FE881F981E80FF91F40815181B6
:104630008A819B814817590731F0B501C701880D60
:10464000991D0E94B7228FEFE81AF80ADBCF0F5F9F
:104650001F4FCECFDF91CF911F910F91FF90EF9021
:10466000DF90CF90BF90AF909F908F9008956F9202
:104670007F928F929F92AF92BF92CF92DF92EF92F2
:10468000FF920F931F93CF93DF93CDB7DEB7609761
:104690000FB6F894DEBF0FBECDBF5C014B016901C0
:1046A000241735070CF445C06FE371E080E090E01B
:1046B0000E94B2207C01A6016FE371E080E090E0EF
:1046C0000E94B2206C012E2DFA86E986482F9C8725
:1046D0008B871E861D8681EE8F87188A00E010E08A
:1046E0003A855C8560E07E8590E00E94B521F1EE20
:1046F0007F2E612CCE14DF04E4F02E2DFA82E982A5
:104700004E2DFC82EB82F501EE0DFF1DE081F0E005
:104710006E2FFE83ED837F82688684013A815C81FF
:104720007E81872D962D0E94B5218FEFE81AF80A19
:10473000E1CF60960FB6F894DEBF0FBECDBFDF911C
:10474000CF911F910F91FF90EF90DF90CF90BF908E
:10475000AF909F908F907F906F9008954F925F924F
:104760006F927F928F929F92AF92BF92CF92DF9281
:10477000EF92FF920F931F93CF93DF93CDB7DEB7E6
:1047800068970FB6F894DEBF0FBECDBF2C014B016A
:10479000E98AFA8A0B8B1C8B2D8B3E8B4F8B588FA3
:1047A00049895A896FE371E080E090E00E94B2206D
:1047B0007C014B895C896FE371E080E090E00E94AE
:1047C000B2203C014D895E896FEE70E080E090E0A0
:1047D0000E94B2205C014F89588D6FEE70E080E03E
:1047E00090E00E94B2206C012E2DFA86E986462DBB
:1047F0007C866B866A2DBE86AD86988B8F8700E09F
:1048000010E03A855C857E8598890E94B5216E14FA
:104810007F0418F1F201EE0DFF1D808190E0C816B3
:10482000D906B8F0FA82E982FC82EB828A159B05F0
:1048300008F4C501682F9E838D83D886CF828401BA
:1048400029813A814B815C817E818C2D98850E94E3
:10485000B5218FEFE81AF80ADACF68960FB6F89408
:10486000DEBF0FBECDBFDF91CF911F910F91FF90A3
:10487000EF90DF90CF90BF90AF909F908F907F9000
:104880006F905F904F9008950F931F93CF93DF9396
:10489000CDB7DEB728970FB6F894DEBF0FBECDBFF9
:1048A000109207051092060510920905109208054E
:1048B0001A82198280910005909101050197482F75
:1048C0009C838B831E821D8280910205909103053B
:1048D000019798878F8300910C0510910D0520E0BA
:1048E0003A815C8160E07E8198850E94B52128969E
:1048F0000FB6F894DEBF0FBECDBFDF91CF911F91F1
:104900000F91089586E08093750080E8809374008D
:104910003F9A249A8FEC97E00197F1F700C00000CE
:1049200047988FE39CE90197F1F700C00000479A90
:104930009FEF2DEE82E0915020408040E1F700C0D3
:10494000000088E290E08093004081E190E0809355
:1049500000409FEF26E781E0915020408040E1F742
:1049600000C0000021E030E08BEC90E0809300403C
:104970002093004180EC90E08093004088E096E234
:10498000909300418093004120E130E081EC90E081
:10499000809300402093004185EC90E0809300409C
:1049A0008EE395E3909300418093004125EB30E046
:1049B00087EC90E0809300402093004121E030E0BC
:1049C00086EF90E0809300402093004180E090E0EB
:1049D000909300418093004125E530E08AE390E028
:1049E000809300402093004181E090E00E940921E3
:1049F0000E944424109207051092060510920905A2
:104A00001092080510920D0510920C058FEF9FEF84
:104A100090930B0580930A0589E290E08093004013
:104A20009FE728E381E0915020408040E1F700C0FB
:104A3000000020E030E085E390E080930040209388
:104A40000041EAE6F0E08081806280832C9A08953C
:104A500090930705809306057093090560930805F8
:104A60000895CF92DF92EF92FF920F931F93CF930F
:104A7000DF93F0910605E09107052091080530913C
:104A800009058A30E1F41092070510920605285FA7
:104A90003F4F3093090520930805809102059091BE
:104AA00003052817390708F49FC0DF91CF911F91A4
:104AB0000F91FF90EF90DF90CF900C94442490EEF4
:104AC000980F9F3508F090C0B901695F7F4F992713
:104AD00087FD90958097A5E0A89FA001A99F500D04
:104AE000112448565F4F8BE290E080930040309352
:104AF00000412093004170930041609300418F2F4B
:104B00009E2F8C010C5F1F4FAAE2EA2EF12CBCE213
:104B1000CB2ED12C481B590B0817190750F1E092E6
:104B20000040909300418093004190930041809316
:104B30000041C0920040FA01E80FF91FE491D90149
:104B4000F1E06A177B0798F0CF2FCE2329F0C091B0
:104B50000A05D0910B0504C0C0910C05D0910D053C
:104B6000D0930041C09300411196FF0FEACF019608
:104B7000D3CF4AE250E040930040909300418093AD
:104B8000004190930041809300418CE290E080933B
:104B900000406217730758F080910C0590910D0545
:104BA00090930041809300412F5F3F4FF2CF80915F
:104BB00006059091070506969093070580930605D4
:104BC00020910005309101058217930768F010923B
:104BD0000705109206058091080590910905089631
:104BE0009093090580930805DF91CF911F910F9154
:104BF000FF90EF90DF90CF9008951F93CF93DF93B6
:104C0000EC0110E0FE01E10FF11D8081882321F00D
:104C10000E9431251F5FF6CFDF91CF911F9108953C
:104C20001F93CF93DF93EC01709307056093060504
:104C3000509309054093080510E0FE01E10FF11DB6
:104C40008081882321F00E9431251F5FF6CFDF91FC
:104C5000CF911F910895EF92FF920F931F93CF93DF
:104C6000DF93C0E0D0E000E810E0E82EF12C9801DE
:104C70000C2E02C0359527950A94E2F72E213F218C
:104C8000232B11F081E301C08EE20E943125219691
:104C9000C830D10561F7DF91CF911F910F91FF903F
:104CA000EF900895CF93DF93EC01888199810E9462
:104CB000B938CE01DF91CF910C94B938EF92FF92C1
:104CC0000F931F93CF93DF93C82F86E090E00E944D
:104CD00021388C01009709F40CC1C43078F48C2F72
:104CE00090E0880F991FFC01EE5DFD4FC081D181DE
:104CF000FC01E65EFD4FE080F18006C087EFE82E04
:104D00008DEBF82EC5E5DDEA80E890E00E942138C1
:104D1000FC01D8018D939C93009721F4C8010E9457
:104D2000B938E7C011821082138212821582148270
:104D3000D783C6831186108613861286158614863D
:104D400017861686118A108A138A128AD58BC48B0D
:104D5000D78BC68BD18FC08F138E128E158E148E6B
:104D6000178E168E11A210A2D3A3C2A315A214A24D
:104D7000F7A2E6A211A610A6D3A7C2A715A614A64D
:104D800017A616A6D1ABC0ABD3ABC2ABF5AAE4AAAB
:104D900017AA16AAF1AEE0AED3AFC2AFD5AFC4AF7B
:104DA00017AE16AEDC01A05CBF4F1D921C92DC0159
:104DB000AE5BBF4FCD93DC93DC01AC5BBF4F1D926C
:104DC0001C92DC01AA5BBF4FED92FC92DC01A85B58
:104DD000BF4F1D921C92DC01A65BBF4FCD93DC93AD
:104DE000DC01A45BBF4F1D921C92DC01A25BBF4F94
:104DF0001D921C92DC01A05BBF4F1D921C92DC0136
:104E0000AE5ABF4F1D921C92DC01AC5ABF4FCD93DE
:104E1000DC93DC01AA5ABF4FCD93DC93DC01A85A86
:104E2000BF4FCD93DC93DC01A65ABF4F1D921C925D
:104E3000DC01A45ABF4F1D921C92DC01A25ABF4F45
:104E40001D921C92DC01A05ABF4F1D921C92DC01E6
:104E5000AE59BF4F1D921C92DC01AC59BF4F1D9241
:104E60001C92DC01AA59BF4FCD93DC93DC01A859F9
:104E7000BF4F1D921C92DC01A659BF4F1D921C9280
:104E8000DC01A459BF4F1D921C92DC01A259BF4FF7
:104E90001D921C92DC01A059BF4F1D921C92DC0197
:104EA000AE58BF4F1D921C92DC01AC58BF4F1D92F3
:104EB0001C92DC01AA58BF4F1D921C92DC01A8581D
:104EC000BF4F1D921C92DC01A658BF4F1D921C9231
:104ED000DC01A458BF4F1D921C92E258FF4F118273
:104EE0001082F8011382128288E084838583C801CE
:104EF00002C080E090E0DF91CF911F910F91FF9071
:104F0000EF900895CF92DF92EF92FF920F931F934D
:104F1000CF93DF93C82F86E090E00E9421388C0168
:104F2000009709F460C2C430A0F48C2F90E0880F81
:104F3000991FFC01EE5EFD4FC081D181FC01E65F4F
:104F4000FD4FE080F180FC01EE5FFD4FC080D1801D
:104F50000AC037EFC32E3DEBD32E45E5E42E4DEAD4
:104F6000F42ECDE4DBE680E091E00E942138FC01E4
:104F7000D8018D939C93009721F4C8010E94B93801
:104F800032C21182108213821282D582C482D782E9
:104F9000C682D186C0861386128615861486178629
:104FA0001686118A108AD38AC28AF58AE48AF78A19
:104FB000E68AD18EC08E138E128E158E148E178EA9
:104FC000168E11A210A28FEF9FEF93A382A3F5A2DA
:104FD000E4A297A386A32AE936ED31A720A733A739
:104FE00022A715A614A617A616A611AA10AA93AB57
:104FF00082ABF5AAE4AA97AB86AB31AF20AF33AF53
:1050000022AF15AE14AE17AE16AEDF01A05CBF4FD7
:105010001D921C92DF01AE5BBF4FCD92DC92DF018F
:10502000AC5BBF4FED92FC92DF01AA5BBF4FED92EC
:10503000FC92DF01A85BBF4F4DE45BE64D935C93B0
:10504000DF01A65BBF4F1D921C92DF01A45BBF4F27
:105050001D921C92DF01A25BBF4F1D921C92DF01CB
:10506000A05BBF4F1D921C92DF01AE5ABF4F1D9235
:105070001C92DF01AC5ABF4F2D933C93DF01AA5A1B
:10508000BF4F2D933C93DF01A85ABF4F2D933C9304
:10509000DF01A65ABF4F2D933C93DF01A45ABF4FA7
:1050A0001D921C92DF01A25ABF4F1D921C92DF017C
:1050B000A05ABF4F1D921C92DF01AE59BF4F2D93D6
:1050C0003C93DF01AC59BF4F2D933C93DF01AA59AC
:1050D000BF4F2D933C93DF01A859BF4F4D935C9375
:1050E000DF01A659BF4F85E59DEA8D939C93DF01B3
:1050F000A459BF4F1D921C92DF01A259BF4F1D92B0
:105100001C92DF01A059BF4F1D921C92DF01AE58C7
:10511000BF4F2D933C93DF01AC58BF4F2D933C9371
:10512000DF01AA58BF4F2D933C93DF01A858BF4F12
:105130004D935C93DF01A658BF4F8D939C93DF0185
:10514000A458BF4F1D921C92DF01A258BF4F1D9261
:105150001C92DF01A058BF4F1D921C92DF01AE5779
:10516000BF4F2D933C93DF01AC57BF4F2D933C9322
:10517000DF01AA57BF4F2D933C93DF01A857BF4FC4
:105180008D939C93DF01A657BF4F8D939C93DF01B6
:10519000A457BF4F1D921C92DF01A257BF4F1D9213
:1051A0001C92DF01A057BF4FCD93DC93DF01AE56B9
:1051B000BF4F2D933C93DF01AC56BF4F2D933C93D3
:1051C000DF01AA56BF4F2D933C93DF01A856BF4F76
:1051D0008D939C93DF01A656BF4F1D921C92DF0159
:1051E000A456BF4F1D921C92DF01A256BF4FCD9314
:1051F000DC93DF01A056BF4FCD93DC93DF01AE55AA
:10520000BF4F2D933C93DF01AC55BF4F2D933C9383
:10521000DF01AA55BF4F2D933C93DF01A855BF4F27
:105220008D939C93DF01A655BF4F1D921C92DF0109
:10523000A455BF4FCD93DC93DF01A255BF4FCD9353
:10524000DC93DF01A055BF4FCD93DC93DF01AE545B
:10525000BF4FCD93DC93DF01AC54BF4F2D933C93F4
:10526000DF01AA54BF4F2D933C93DF01A854BF4FD9
:10527000CD93DC93DF01A654BF4F1D921C92DF013A
:10528000A454BF4F87EF9DEB8D939C93DF01A254F5
:10529000BF4FCD93DC93DF01A054BF4F8D939C9300
:1052A000DF01AE53BF4F8D939C93DF01AC53BF4FD3
:1052B000CD93DC93DF01AA53BF4FCD93DC93DF0185
:1052C000A853BF4FCD93DC93DF01A653BF4F1D9270
:1052D0001C92DF01A453BF4F1D921C92DF01A25309
:1052E000BF4F1D921C92DF01A053BF4F1D921C9215
:1052F000DF01AE52BF4F1D921C92DF01AC52BF4F77
:10530000CD93DC93DF01AA52BF4FCD93DC93DF0135
:10531000A852BF4F1D921C92DF01A652BF4F1D9293
:105320001C92DF01A452BF4F1D921C92DF01A252BA
:10533000BF4F1D921C92DF01A052BF4F1D921C92C5
:10534000DF01AE51BF4F1D921C92DF01AC51BF4F28
:105350001D921C92DF01AA51BF4F1D921C92DF01CA
:10536000A851BF4F1D921C92DF01A651BF4F1D9245
:105370001C92DF01A451BF4F1D921C92DF01A2516C
:10538000BF4F1D921C92DF01A051BF4F1D921C9276
:10539000DF01AE50BF4F1D921C92DF01AC50BF4FDA
:1053A0001D921C92DF01AA50BF4F1D921C92DF017B
:1053B000A850BF4F1D921C92DF01A650BF4F1D92F7
:1053C0001C92DF01A450BF4F1D921C92E250FF4F70
:1053D00011821082F8011382128288E0848380E1B6
:1053E0008583C80102C080E090E0DF91CF911F91DA
:1053F0000F91FF90EF90DF90CF900895CF92DF92C2
:10540000EF92FF920F931F93CF93DF93C82F86E005
:1054100090E00E9421388C01009709F460C2C430EA
:10542000A0F48C2F90E0880F991FFC01E650FE4FEE
:10543000C081D181FC01EE50FE4FC080D180FC01C3
:10544000E651FE4FE080F1800AC067EFE62E6DEB7B
:10545000F62E75E5C72E7DEAD72ECDE4DBE680E09B
:1054600091E00E942138FC01D8018D939C93009714
:1054700021F4C8010E94B93832C21182108213820D
:10548000128215821482F782E682F186E086F38624
:10549000E2861586148617861686118A108A138A64
:1054A000128A158A148AF78AE68AD18EC08ED38E24
:1054B000C28EF58EE48E178E168E11A210A213A244
:1054C00012A22AE936ED35A324A337A326A38FEF32
:1054D0009FEF91A780A7D3A6C2A695A784A717A6DA
:1054E00016A611AA10AA13AA12AA35AB24AB37AB81
:1054F00026AB91AF80AFD3AEC2AE95AF84AF17AE3F
:1055000016AEDF01A05CBF4F1D921C92DF01AE5BA7
:10551000BF4F1D921C92DF01AC5BBF4F1D921C92CE
:10552000DF01AA5BBF4F6DE47BE66D937C93DF01E7
:10553000A85BBF4FCD92DC92DF01A65BBF4FCD923F
:10554000DC92DF01A45BBF4FED92FC92DF01A25B16
:10555000BF4F1D921C92DF01A05BBF4F1D921C929A
:10556000DF01AE5ABF4FCD93DC93DF01AC5ABF4F82
:10557000CD93DC93DF01AA5ABF4F2D933C93DF01FB
:10558000A85ABF4F2D933C93DF01A65ABF4F2D93CE
:105590003C93DF01A45ABF4F1D921C92DF01A25A17
:1055A000BF4F1D921C92DF01A05ABF4F1D921C924B
:1055B000DF01AE59BF4FCD93DC93DF01AC59BF4F34
:1055C000CD93DC93DF01AA59BF4F6D937C93DF012C
:1055D000A859BF4F2D933C93DF01A659BF4F2D9380
:1055E0003C93DF01A459BF4F2D933C93DF01A25997
:1055F000BF4F1D921C92DF01A059BF4F47EF5DEBDB
:105600004D935C93DF01AE58BF4FCD93DC93DF0128
:10561000AC58BF4F85E59DEA8D939C93DF01AA5856
:10562000BF4F6D937C93DF01A858BF4F2D933C93E0
:10563000DF01A658BF4F2D933C93DF01A458BF4F05
:105640002D933C93DF01A258BF4F1D921C92DF01A6
:10565000A058BF4FCD93DC93DF01AE57BF4FCD9322
:10566000DC93DF01AC57BF4F8D939C93DF01AA57AA
:10567000BF4F8D939C93DF01A857BF4F2D933C9351
:10568000DF01A657BF4F2D933C93DF01A457BF4FB7
:105690002D933C93DF01A257BF4F1D921C92DF0157
:1056A000A057BF4FCD93DC93DF01AE56BF4FCD93D4
:1056B000DC93DF01AC56BF4F1D921C92DF01AA564E
:1056C000BF4F8D939C93DF01A856BF4F2D933C9302
:1056D000DF01A656BF4F2D933C93DF01A456BF4F69
:1056E0002D933C93DF01A256BF4FCD93DC93DF0196
:1056F000A056BF4FCD93DC93DF01AE55BF4FCD9386
:10570000DC93DF01AC55BF4F1D921C92DF01AA55FF
:10571000BF4F8D939C93DF01A855BF4F2D933C93B2
:10572000DF01A655BF4F2D933C93DF01A455BF4F1A
:105730002D933C93DF01A255BF4FCD93DC93DF0146
:10574000A055BF4F4D935C93DF01AE54BF4FCD9337
:10575000DC93DF01AC54BF4F1D921C92DF01AA54B1
:10576000BF4FCD93DC93DF01A854BF4F2D933C93E3
:10577000DF01A654BF4F2D933C93DF01A454BF4FCC
:105780001D921C92DF01A254BF4F1D921C92DF019B
:10579000A054BF4F4D935C93DF01AE53BF4F4D9369
:1057A0005C93DF01AC53BF4F1D921C92DF01AA53E3
:1057B000BF4FCD93DC93DF01A853BF4FCD93DC9354
:1057C000DF01A653BF4FCD93DC93DF01A453BF4F3E
:1057D0001D921C92DF01A253BF4F1D921C92DF014C
:1057E000A053BF4F1D921C92DF01AE52BF4F1D92BE
:1057F0001C92DF01AC52BF4F1D921C92DF01AA52D6
:10580000BF4F1D921C92DF01A852BF4FCD93DC9376
:10581000DF01A652BF4FCD93DC93DF01A452BF4FEF
:105820001D921C92DF01A252BF4F1D921C92DF01FC
:10583000A052BF4F1D921C92DF01AE51BF4F1D926F
:105840001C92DF01AC51BF4F1D921C92DF01AA5187
:10585000BF4F1D921C92DF01A851BF4F1D921C9299
:10586000DF01A651BF4F1D921C92DF01A451BF4F13
:105870001D921C92DF01A251BF4F1D921C92DF01AD
:10588000A051BF4F1D921C92DF01AE50BF4F1D9221
:105890001C92DF01AC50BF4F1D921C92DF01AA5039
:1058A000BF4F1D921C92DF01A850BF4F1D921C924A
:1058B000DF01A650BF4F1D921C92DF01A450BF4FC5
:1058C0001D921C92E250FF4F11821082F801138248
:1058D000128288E0848380E18583C80102C080E071
:1058E00090E0DF91CF911F910F91FF90EF90DF90AB
:1058F000CF9008958F929F92AF92BF92CF92DF92F6
:10590000EF92FF920F931F93CF93DF93CDB7DEB744
:10591000C054D1090FB6F894DEBF0FBECDBF7B01D6
:105920008A01C22E40E061EA72E00E94B01041E0BC
:10593000B801C7010E94FA10009709F046C0D12CA7
:105940008E010F5F1F4FA70160E470E0C8010E9445
:10595000751D892B11F0D394F6CFCD1418F4AD2C0E
:10596000AC1801C0A12C40E050E0BA01C7010E9470
:10597000A915882EB12C8FE6C82E82E0D82EA7015B
:1059800060E470E0C8010E94751D892BA9F099247C
:1059900093949B0CBA1470F01F930F931F929F92D5
:1059A000DF92CF920E94B7330F900F900F900F901D
:1059B0000F900F90B92CE3CF26E732E03F932F935F
:1059C0000E94B733882D0F900F90C05CDF4F0FB649
:1059D000F894DEBF0FBECDBFDF91CF911F910F9125
:1059E000FF90EF90DF90CF90BF90AF909F908F90FF
:1059F00008950F931F93CF93DF93EC010091C90299
:105A00001091CA020E945B349801280F311D87FD56
:105A10003A95283681E038071CF02856314004C0FA
:105A200037FF02C028593E4F3093CA022093C90263
:105A3000CE01DF91CF911F910F910895CF93DF9306
:105A4000EC0184E00E94663488E00E94663480E1C4
:105A50000E94663480E20E94663480E80E948734A7
:105A6000882339F080913505813019F483E08093E3
:105A7000350580E80E94803484E00E94713480E122
:105A80000E94713482E00E94713480E40E94873465
:105A9000CE01DF91CF9108950F931F93CF93DF93A2
:105AA0008091100590E001966091D30170E00E9412
:105AB000F2358093100580914605909147050E942C
:105AC0005226809110050E945E2690934705809390
:105AD000460581E08093350510920F0510920E0562
